:100000000C9435000C945D000C945D000C945D0024
:100010000C945D000C945D000C945D000C945D00EC
:100020000C945D000C945D000C945D000C945D00DC
:100030000C945D000C945D000C945D000C945D00CC
:100040000C9403020C945D000C9473020C944D020A
:100050000C945D000C945D000C945D000C945D00AC
:100060000C945D000C945D00AA0311241FBECFEF19
:10007000D8E0DEBFCDBF11E0A0E0B1E0E2E0F8E003
:1000800002C005900D92AC35B107D9F722E0ACE57E
:10009000B1E001C01D92A230B207E1F710E0C5E364
:1000A000D0E004C02197FE010E94F903C433D107B8
:1000B000C9F70E94A5020C94FF030C9400003FB7FF
:1000C000F8948091610190916201A0916301B091D7
:1000D000640126B5A89B05C02F3F19F00196A11D0C
:1000E000B11D3FBFBA2FA92F982F8827BC01CD0182
:1000F000620F711D811D911D42E0660F771F881FE1
:10010000991F4A95D1F70895AF92BF92CF92DF928F
:10011000EF92FF920F931F93CF93DF936C017B01BC
:100120008B01040F151FEB015E01AE18BF08C0174D
:10013000D10759F06991D601ED91FC910190F081C0
:10014000E02DC6010995892B79F7C501DF91CF9183
:100150001F910F91FF90EF90DF90CF90BF90AF90E5
:100160000895FC01538D448D252F30E0842F90E0BD
:10017000821B930B541710F0CF96089501970895A2
:10018000FC01918D828D981761F0A28DAE0FBF2F6B
:10019000B11D5D968C91928D9F5F9F73928F90E0C1
:1001A00008958FEF9FEF0895FC01918D828D981730
:1001B00031F0828DE80FF11D858D90E008958FEF6D
:1001C0009FEF0895FC01918D228D892F90E0805C36
:1001D0009F4F821B91098F739927089585E691E0BF
:1001E0000E94E20021E0892B09F420E0822F08958B
:1001F00080E090E0892B29F00E94EE0081110C94A0
:1002000000000895FC01A48DA80FB92FB11DA35AB9
:10021000BF4F2C91848D90E001968F739927848F26
:10022000A689B7892C93A089B1898C918370806449
:100230008C93938D848D981306C00288F389E02DEA
:1002400080818F7D80830895EF92FF920F931F939B
:10025000CF93DF93EC0181E0888F9B8D8C8D981379
:100260001AC0E889F989808185FF15C09FB7F89485
:10027000EE89FF896083E889F989808183708064D1
:1002800080839FBF81E090E0DF91CF911F910F911C
:10029000FF90EF900895F62E0B8D10E00F5F1F4F2B
:1002A0000F731127E02E8C8D8E110CC00FB607FC3A
:1002B000FACFE889F989808185FFF5CFCE010E94C8
:1002C0000201F1CFEB8DEC0FFD2FF11DE35AFF4F33
:1002D000F0829FB7F8940B8FEA89FB898081806256
:1002E000CFCFCF93DF93EC01888D8823B9F0AA8913
:1002F000BB89E889F9898C9185FD03C0808186FDE1
:100300000DC00FB607FCF7CF8C9185FFF2CF80812F
:1003100085FFEDCFCE010E940201E9CFDF91CF91A1
:100320000895FC0101900020E9F73197AF01481BC7
:10033000590BBC0185E691E00C9484008F929F924A
:10034000AF92BF920F931F93CF93DF93CDB7DEB7DA
:10035000A1970FB6F894DEBF0FBECDBF19A24230F1
:1003600008F44AE08E010F5D1F4F842E912CB12CB2
:10037000A12CA50194010E94D703E62FB901CA015F
:10038000EA30F4F4E05DD801EE938D01232B242BA9
:10039000252B79F790E080E0109719F0CD010E94AD
:1003A0009101A1960FB6F894DEBF0FBECDBFDF91CD
:1003B000CF911F910F91BF90AF909F908F90089514
:1003C000E95CE1CFCF92DF92EF92FF92CF93DF9380
:1003D0006B017C016DE285E691E00E942401EC0155
:1003E00066277727CB016C197D098E099F094AE0A2
:1003F0000E949E018C0F9D1FDF91CF91FF90EF9087
:10040000DF90CF9008951F920F920FB60F92112494
:100410002F933F938F939F93AF93BF9380915D01F1
:1004200090915E01A0915F01B091600130915C01FB
:1004300023E0230F2D3758F50196A11DB11D209300
:100440005C0180935D0190935E01A0935F01B09386
:1004500060018091610190916201A0916301B0916E
:1004600064010196A11DB11D809361019093620109
:10047000A0936301B0936401BF91AF919F918F915D
:100480003F912F910F900FBE0F901F90189526E867
:10049000230F0296A11DB11DD2CF1F920F920FB64E
:1004A0000F9211242F933F934F935F936F937F93FA
:1004B0008F939F93AF93BF93EF93FF9385E691E064
:1004C0000E940201FF91EF91BF91AF919F918F9197
:1004D0007F916F915F914F913F912F910F900FBE40
:1004E0000F901F9018951F920F920FB60F92112424
:1004F0002F938F939F93EF93FF93E0917501F0916A
:1005000076018081E0917B01F0917C0182FD1BC02E
:10051000908180917E018F5F8F7320917F01821780
:1005200041F0E0917E01F0E0EB59FE4F958F809312
:100530007E01FF91EF919F918F912F910F900FBEB0
:100540000F901F9018958081F4CF789484B58260C5
:1005500084BD84B5816084BD85B5826085BD85B567
:10056000816085BD80916E00816080936E001092E5
:100570008100809181008260809381008091810060
:1005800081608093810080918000816080938000F1
:100590008091B10084608093B1008091B00081604F
:1005A0008093B00080917A00846080937A0080917B
:1005B0007A00826080937A0080917A0081608093D3
:1005C0007A0080917A00806880937A001092C1004E
:1005D000E0917501F091760182E08083E0917101F4
:1005E000F09172011082E0917301F09174018FEC2F
:1005F000808310927D01E0917901F0917A0186E08B
:100600008083E0917701F09178018081806180831F
:10061000E0917701F0917801808188608083E0919A
:100620007701F0917801808180688083E091770183
:10063000F091780180818F7D808382E491E00E9437
:1006400091018AE491E00E94910130E4332E40E070
:10065000842E40E0942E30927C0080917A00806459
:1006600080937A0080917A0086FDFCCFA09078007C
:10067000B0907900C2E1D1E0C12CD12C7601C394B5
:100680008E01412C512C32014394F80180819181DB
:100690008A159B05B1F48DE491E00E9491014AE036
:1006A000C301B2010E949E0184E591E00E94910184
:1006B0004AE0C701B6010E949E018AE491E00E94CF
:1006C0009101085F1F4FFFEF4F1A5F0A6F0A7F0A01
:1006D00027E04216510461047104B9F622968FEFA7
:1006E000C81AD80AE80AF80AE5E0CE16D104E104EF
:1006F000F10431F60E945F006B017C018AEF482E05
:10070000512C612C712C0E945F006C197D098E099F
:100710009F09683E734081059105A8F3F1E04F1AE7
:1007200051086108710828EEC20E23E0D21EE11CB8
:10073000F11C411451046104710429F781149104DE
:1007400009F489CF0E94EE00882309F484CF0E9427
:10075000000081CFE5E6F1E01382128288EE93E09B
:10076000A0E0B0E084839583A683B78384E091E022
:100770009183808385EC90E09587848784EC90E07A
:100780009787868780EC90E0918B808B81EC90E05E
:10079000938B828B82EC90E0958B848B86EC90E03F
:1007A000978B868B118E128E138E148E0895A1E274
:1007B0001A2EAA1BBB1BFD010DC0AA1FBB1FEE1FDB
:1007C000FF1FA217B307E407F50720F0A21BB30B26
:1007D000E40BF50B661F771F881F991F1A9469F7A2
:1007E00060957095809590959B01AC01BD01CF01FE
:1007F0000895EE0FFF1F0590F491E02D0994F894F1
:02080000FFCF28
:100802000000000024018400B1007101E200C00078
:10081200D400380067009200B9006F00C6000D01D5
:100822004A01D8006401C6010F028F013E02A002F4
:10083200DF028C021D035C038003A303CF03DF03EB
:10084200E7034F4E2055415254000D0A00526F7774
:0C085200203D200020436F6C203D200062
:00000001FF
